:1000000000800020BD0100009977000051770000BA
:1000100051770000517700005177000051770000C0
:100020005177000051770000517700009977000068
:100030009977000051770000959400009995000091
:100040009977000099770000997700009977000070
:100050009977000099770000997700009977000060
:100060009977000099770000997700009977000050
:100070009977000099770000997700009977000040
:100080009977000099770000997700009977000030
:100090009977000099770000997700009977000020
:1000A0009977000099770000997700009977000010
:1000B0009977000099770000997700009977000000
:1000C00099770000997700009977000099770000F0
:1000D00099770000997700009977000099770000E0
:1000E00099770000997700009977000099770000D0
:1000F00099770000DD9C00009977000025810000C1
:1001000099770000099E0000997700009977000018
:10011000997700009977000099770000997700009F
:10012000997700009977000099770000997700008F
:10013000997700009977000099770000997700007F
:10014000997700009977000099770000997700006F
:10015000997700009977000099770000997700005F
:1001600099770000E98300009977000099770000F3
:10017000997700009977000099770000997700003F
:10018000997700009977000099770000997700002F
:10019000997700009977000099770000997700001F
:1001A000997700009977000099770000997700000F
:1001B000997700009977000099770000564B4CF230
:1001C000205210B51A804DF628121A8000BF00BFC9
:1001D00007F0E6FA514B4FF010621A60504A9A60ED
:1001E000504ADA60504A136813F4807304D14F49BF
:1001F0000B604FF4A85313604D4B1A78110703D5C9
:100200001A7842F008021A704A4B4B492A221A7097
:100210004A4A4B4B8B4204D252F8040F43F8040B6A
:10022000F8E7484B484900228B4202D243F8042B9E
:10023000FAE74649464A002352F8230041F82300D2
:1002400001336F2BF8D1434B434A802103F8011B44
:100250009342FBD1414B3D4A1A60414B8A221A70AE
:10026000A3F5805324225A70A0221A709A7992071B
:10027000FCD59A79D406FCD43A4A937903F00C035E
:10028000082B384BF9D105221A7143225A719A79F9
:100290009006FCD5334A9179324B4906FBD5324A58
:1002A0004FF0817111600521516020221A709A79F6
:1002B00002F00C020C2AFAD12C4B2D4A1A602D4B5D
:1002C0002D4A1A6000225A60072243F8042C2B4A58
:1002D000C3F80C2D62B607F08FFB144B1B68DA07CE
:1002E00005D5274807F0F6FA264B274A1A60274B10
:1002F0001B785B0609D5234C234B22689A4204D114
:100300001F4807F0E7FA002323600AF02DFC07F0EE
:100310004DFA09F0D5FBFEE70E2005403080044081
:10032000823F04000100002B10D0034014D0034092
:1003300002D0074000E007404CAEFF1FFCC70000A2
:1003400020A5FF1F4CAEFF1F00CFFF1F00A0FF1F07
:100350000000000000E400E05FE400E008ED00E0E1
:1003600000500640004006404480044004800440A1
:10037000C010050014E000E03F190100000020203B
:10038000694D285F1CE00340A5C3945A00F0074064
:10039000FFFFFFFFFFFFFFFFFFFFFFFFFFFFFFFF6D
:1003A000FFFFFFFFFFFFFFFFFFFFFFFFFFFFFFFF5D
:1003B000FFFFFFFFFFFFFFFFFFFFFFFFFFFFFFFF4D
:1003C000FFFFFFFFFFFFFFFFFFFFFFFFFFFFFFFF3D
:1003D000FFFFFFFFFFFFFFFFFFFFFFFFFFFFFFFF2D
:1003E000FFFFFFFFFFFFFFFFFFFFFFFFFFFFFFFF1D
:1003F000FFFFFFFFFFFFFFFFFFFFFFFFFFFFFFFF0D
:10040000FFFFFFFFFFFFFFFFFFFFFFFFDEF9FFFF23
:1004100010B5054C237833B9044B13B10448AFF33E
:1004200000800123237010BD4CAEFF1F00000000B0
:1004300000C80000084B10B51BB108490848AFF3CD
:1004400000800848036803B910BD074B002BFBD0A0
:10045000BDE81040184700BF0000000050AEFF1F6D
:1004600000C800004CAEFF1F0000000010B504469D
:1004700000F07CFA0023002284F87830C4F8803041
:10048000C4F89430C4F89830C4F89C30C4F8A03054
:10049000E267C4F88420C4F88820C4F88C20C4F82B
:1004A0009020204610BD00BF90F8663003B9704719
:1004B0002DE9F04F04468DB094F83C30049394F845
:1004C0003D30059394F83E30069394F83F300793FF
:1004D000B4F84030B0F844000893B4F842300993BF
:1004E0000AF0ECF801462046B4F846B0B4F848509B
:1004F000B4F84A6094F84C7094F84D8094F84E909B
:1005000094F84FA000F088FD0A9058460AF0D6F8FB
:100510000146204600F080FD0B90002D40F08F80BA
:10052000002E40F0C880204600F06EFD00284AD022
:100530000023E3670023C4F8803038460AF0BEF891
:10054000C4F8840040460AF0B9F8C4F88800484668
:100550000AF0B4F8C4F88C0050460AF0AFF8C4F8BA
:100560009000002D00F0B181D4F89C000AF0AAF8A8
:100570000146E06F0AF0A2FA002800F0DD81D4F80D
:10058000A410D4F88400DFF8AC9309F0E7FFD4F8A6
:10059000A810C4F884008046D4F8880009F0DEFF73
:1005A000D4F8AC10C4F888000746D4F88C0009F0E1
:1005B000D5FFD4F8B010C4F88C000646D4F89000EB
:1005C00009F0CCFF14E1D4F8803015B9002B00F00D
:1005D0007C81002E40F0A980022B40F0A6800322EF
:1005E0000023C4F88020E36738460AF067F8C4F8AF
:1005F000840040460AF062F8C4F8880048460AF0D1
:100600005DF8C4F88C0050460AF058F8C4F8900021
:10061000099B0293089B0193CDF800A04B464246EC
:100620003946204600F0F0F90523C4F88030BF4970
:10063000E06F09F093FFE0670DB0BDE8F08F28464A
:100640000AF03CF80146204600F0E6FCB84BC4F83E
:100650009C00A3FB05300009C4F894000AF032F8AE
:10066000049B8346D81B0AF02DF859460AF032F94C
:10067000059BC4F8A400C8EB03000AF023F8594610
:100680000AF028F9069BC4F8A800C9EB03000AF099
:1006900019F859460AF01EF9079BC4F8AC00CAEBDA
:1006A00003000AF00FF859460AF014F9C4F8B00034
:1006B000002E3FF438AF30460AF000F801462046DD
:1006C00000F0AAFC9A4BC4F8A000A3FB0630000976
:1006D000C4F8980009F0F6FF049B8346D81B09F084
:1006E000F1FF59460AF0F6F8059BC4F8B400C8EBD0
:1006F000030009F0E7FF59460AF0ECF8069BC4F83E
:10070000B800C9EB030009F0DDFF59460AF0E2F832
:10071000079BC4F8BC00CAEB030009F0D3FF59469D
:100720000AF0D8F8C4F8C000FDE6052B3FF67FAF0D
:1007300001A252F823F000BF69050000FD08000087
:100740009507000011060000730700005107000024
:10075000BDF82C00E56F09F0B5FF014628460AF008
:10076000C1F9002800F0AC8000237048C4F8803044
:1007700061E7BDF82800E56F09F0A4FF01462846AF
:100780000AF0B0F9002800F09B800223C4F8803002
:10079000664850E7D4F8A00009F094FF0146E06FE6
:1007A0000AF08CF9002800F0BC80D4F8B410D4F81A
:1007B0008400DFF8809109F0CFFED4F8B810C4F8B7
:1007C00084008046D4F8880009F0C6FED4F8BC1036
:1007D000C4F888000746D4F88C0009F0BDFED4F8B0
:1007E000C010C4F88C000646D4F8900009F0B4FE9E
:1007F0000546C4F89000494640460AF073F910B126
:10080000C4F88490C846DFF82C91384649460AF06F
:1008100069F910B1C4F888904F46DFF81891304656
:1008200049460AF05FF910B1C4F88C904E46DFF8E3
:100830000491284649460AF055F910B1C4F8909041
:100840004D464FF00009404649460AF02DF9002870
:1008500040F0848040460AF04FF980464FF000098E
:10086000384649460AF020F9002873D138460AF084
:1008700043F907464FF00009304649460AF014F99B
:10088000002862D130460AF037F981460026284612
:1008900031460AF009F9002853D128460AF02CF90C
:1008A000099B0293089B41468DE809003A46204681
:1008B0004B4600F0A9F81D49E06F09F04FFEBAE67B
:1008C00028461A4909F04AFEB5E601220023C4F879
:1008D0008020E367049809F0F1FEC4F884000598CD
:1008E00009F0ECFEC4F88800069809F0E7FEC4F8A9
:1008F0008C00079809F0E2FEC4F89000099B02936F
:10090000089B0193079B009304A90EC9204600F0A1
:100910007BF80423C4F880300449E06F09F01EFE20
:1009200089E60323C4F88030004884E60000A04133
:10093000CDCCCCCC00007F430123C4F880300A48E2
:1009400079E6C4F890600020AAE7C4F88C904FF0D4
:1009500000099BE7C4F8889000278BE7C4F88490CF
:100960004FF000087AE700BF0000A0412DE9F041F8
:10097000244E00250127044688460570457087707F
:100980003146083008F074FF294604F1180008F0D9
:100990006FFF294604F12C0008F06AFF314684F805
:1009A0003C5084F83D5084F83E5084F83F50A4F801
:1009B0004050A4F84250A4F84450A4F84650A4F87B
:1009C0004850A4F84A5084F84C5084F84D5084F8AC
:1009D0004E5084F84F5004F1500008F049FFA4F83D
:1009E0006470A4F86050A4F8625084F866503146F0
:1009F00004F1680008F03CFFC4F804802046BDE81C
:100A0000F08100BF70C400002DE9F041079C089DF3
:100A1000013CA5423BDD069EDBB2090201F47F41A9
:100A200043EA066312040B4302F47F011943C1F346
:100A3000072EC1F307474FEA116C10E0966806F8DD
:100A400023109368434483F801E0936843449F7004
:100A50009368984488F803C00134A54217D04268CF
:100A60001688A3B2B342F7D2D678052E4FEA830890
:100A7000E4D8966803EB43030134F15496681E44AE
:100A8000A54286F801E0926813449F70E7D1BDE863
:100A9000F08100BF30B430BCFFF7B6BF683008F05B
:100AA00037BF00BFF8B5B0F84020B1F838E04C8F40
:100AB000B0F84260C2EB0E0EBEF1000F0546A6EB89
:100AC000040631DD023A012396454370406829DD72
:100AD000002110E0876807F8231083686344597089
:100AE00083686344997083689C448CF80310686839
:100AF0000132964516D0078893B2BB42F8D2C77828
:100B0000052F4FEA830CE5D8876803EB43030132D6
:100B1000F95487681F44964579708068034499703A
:100B20006868E8D106F062FA002E32DD621E012309
:100B300096426B70686828DD00240FE0876807F82C
:100B4000234083680B445C7083680B449C7083680B
:100B50001944CC7068680132964216D0018893B26D
:100B60008B42F8D2C778052F4FEA8301E6D8816817
:100B700003EB43030132CC548168194496424C7014
:100B800081680B449C706868E8D1BDE8F84006F0C5
:100B90002DBAF8BD70B5544E98B00446314668463B
:100BA00008F066FE04A8002108F062FE09A80021F2
:100BB00008F05EFE0025314612A801268DF834505B
:100BC0008DF835508DF836508DF83750ADF83850D7
:100BD000ADF83A50ADF83C50ADF83E50ADF840504D
:100BE000ADF842508DF844508DF845508DF8465080
:100BF0008DF8475008F03CFE694604F10800ADF856
:100C00005850ADF85A508DF85E50ADF85C6008F061
:100C10007FFE04A904F1180008F07AFE9DF8203048
:100C200084F8283009A904F12C0008F071FE9DF821
:100C300034209DF835309DF8361084F83C2084F837
:100C40003D309DF83720BDF8383084F83E1084F8E8
:100C50003F20BDF83A10BDF83C20A4F84030BDF864
:100C60003E30A4F84210A4F84420BDF84010BDF86E
:100C70004220A4F846309DF84430A4F84810A4F867
:100C80004A209DF845109DF8462084F84C309DF888
:100C9000473084F84D1084F84E2084F84F3012A964
:100CA00004F1500008F034FEBDF85A10BDF85C2085
:100CB0009DF85E30BDF85800A4F86210A4F86420D6
:100CC00084F86630A4F86000A67012A808F090FDC1
:100CD00009A808F08DFD04A808F08AFD684608F010
:100CE00087FD18B070BD00BF70C40000B0F84010A0
:100CF000F0B4B0F8426001398E4227DD00250EE0E5
:100D0000976807F82350936823445D7093682344E1
:100D10009D7093681C44E57001318E4216D0426884
:100D200014888BB2A342F7D2D778052F4FEA8304F9
:100D3000E6D8946803EB43030131E55494681C44FE
:100D40008E426570926813449D70E8D1F0BC704784
:100D50002DE9F041012398B0054600F8683B0C46A8
:100D600008F054FE40B194F85E304BB92846FFF7C6
:100D7000BDFF2846FFF70EFFFF2018B0BDE8F08149
:100D800004F110082146684608F086FD04F12407A6
:100D9000414604A808F080FD94F820308DF82030FA
:100DA000394609A808F078FD94F8342094F83530D5
:100DB0008DF834208DF8353094F8362094F837309B
:100DC0008DF836208DF83730228F638FADF83820BC
:100DD000ADF83A30A28FE38FADF83C20ADF83E304D
:100DE000B4F84020B4F84230ADF8402004F1480691
:100DF00094F84420ADF8423094F845308DF8442002
:100E0000314694F846208DF8453012A894F84730C2
:100E10008DF846208DF8473008F03EFDB4F8583084
:100E2000B4F85A00B4F85C20ADF85830694694F82C
:100E30005E30ADF85A002846ADF85C208DF85E3083
:100E4000FFF730FE12A808F0D3FC09A808F0D0FC88
:100E500004A808F0CDFC684608F0CAFC21466846A4
:100E600008F01AFD414604A808F016FD94F8203059
:100E70008DF82030394609A808F00EFD94F834703A
:100E800094F8362094F83730B4F838E08DF83470A0
:100E9000314694F83560678F8DF835608DF83620CF
:100EA000A68FE28F8DF83730B4F84030ADF838E0D7
:100EB000ADF83A70B4F842E094F84470ADF83C6094
:100EC000ADF83E2094F8456094F84620ADF84030E7
:100ED00012A894F84730ADF842E08DF844708DF8D0
:100EE00045608DF846208DF8473008F0D5FCB4F801
:100EF0005800B4F85C2094F85E30B4F85A60ADF84D
:100F00005800694605F10800ADF85C208DF85E30A8
:100F1000ADF85A6008F0FCFC04A905F1180008F0CF
:100F2000F7FC9DF8203085F8283009A905F12C0040
:100F300008F0EEFC9DF834109DF835709DF8366091
:100F40009DF83740BDF83800BDF83A20BDF83C3078
:100F500085F83C1085F83D70BDF83E10BDF8407036
:100F600085F83E6085F83F40BDF842609DF84440FA
:100F7000A5F84000A5F842209DF845009DF84620C0
:100F8000A5F844309DF84730A5F8461085F84D0087
:100F900012A985F84E2085F84F30A5F84870A5F8BD
:100FA0004A6085F84C4005F1500008F0B1FCBDF8EE
:100FB0005A10BDF85C209DF85E30BDF85800A5F8C9
:100FC0006210A5F8642085F86630A5F8600012A8C4
:100FD00008F00EFC09A808F00BFC04A808F008FCB7
:100FE000684608F005FCFF2018B0BDE8F08100BF9E
:100FF0000346002200781A70704700BF03460022A3
:1010000040785A70704700BF83781BB1002383700B
:10101000012070471846704738B5084609F06CFD46
:101020000E4CC31784FB0024C3EBE40404EB8404DC
:10103000A0EB84040546204609F044FB084909F06A
:1010400033FD20B1281B0028D8BF142038BDC4F1BF
:10105000140460190028D8BF142038BD676666667E
:1010600000004041F8B505461E2345F8043B0746FD
:1010700000F5F2762C4620460021103408F0F8FBEB
:10108000B442F8D13B68002B0ADD0024284605490C
:1010900008F04EFC3B680134A34205F11005F5DC75
:1010A0003846F8BD70C4000070B5064684B0684686
:1010B00008F0F2FB3368002B13DD351D002403E03C
:1010C00033680134A3420CDD2846694608F09EFCD3
:1010D00010350028F4D0684608F08AFB204604B09A
:1010E00070BD684608F084FB4FF0FF34204604B022
:1010F00070BD00BF30B585B00446684608F0CCFB33
:1011000069462046FFF7D0FF0546684608F070FBA9
:10111000002D05DB04EB05100430024908F008FC43
:1011200005B030BD70C4000070B5064684B0684696
:10113000104908F09DFB3368002B13DD351D00249A
:1011400003E033680134A3420CDD2846694608F009
:101150005DFC10350028F4D0684608F049FB2046B5
:1011600004B070BD684608F043FB4FF0FF342046E2
:1011700004B070BD70C4000038B50D460446FFF7DA
:10118000D3FF002807DB04EB001029460430BDE83C
:10119000384008F0BDBB38BD70B5064684B068461F
:1011A00008F07AFB3368002B14DD351D002403E0C2
:1011B00033680134A3420DDD2846694608F026FC59
:1011C00010350028F4D0684608F012FBE043C00F49
:1011D00004B070BD684608F00BFB002004B070BD81
:1011E000F8B50368002B10DD002406462746051DD0
:1011F0002846074908F018FC0134103500B90137BA
:101200003368A342F4DC3846F8BD0027FBE700BF93
:1012100070C40000F0B50E4685B01A49074608F0C4
:1012200027FB3368002B25DD341D002504E03368DF
:10123000AB4204F110041DDD1249204608F0F4FB16
:1012400001350028F3D13946684608F025FB0E49E0
:10125000684608F0B7FB214608F0ACFB014638466B
:1012600008F056FB684608F0C3FA3368AB4204F155
:101270001004E1DC02220021384608F005FC384663
:1012800005B0F0BD70C400001CBF0000F8B50E46EC
:101290000D49074608F0ECFA3368002B12DD341DC7
:1012A000002504E03368AB4204F110040ADD06496E
:1012B000204608F0B9FB01350028F3D12146384615
:1012C00008F026FB3846F8BD70C400002DE9F04F49
:1012D0003F4B824683B040F8043B8846FFF7C2FE8E
:1012E0000AF518740AF55A6B00254FF0010900271A
:1012F0003849204608F0BCFA394604F1100008F0DD
:10130000B7FA394604F1240008F0B2FA84F84470C0
:1013100084F8345084F8355084F8365084F83750C7
:1013200025876587A587E587A4F84050A4F8425033
:1013300084F8455084F8465084F8475004F148003A
:10134000244908F095FA603424F8085C24F8065C17
:1013500024F8049C04F8025C5C45C8D11E4BCAF812
:10136000A07D1B680193019A8AF8A47D03230AF5E6
:1013700003798AF8AC7D8AF8AD7DCAF8B02DCAF839
:10138000A83D4E460AF5F2740AF50D75782008F06E
:101390009FFB4146074601F0C9FF44F8047FC42083
:1013A00008F096FB41460746FFF760F846F8047FD1
:1013B000A82008F08DFB4146074601F0E5FF4C45AB
:1013C00045F8047FE2D1504603B0BDE8F08F00BF7E
:1013D0000080BB4470C4000008CCFF1F10B591F81A
:1013E0005E3084B00446684663B108F055FA694639
:1013F000201DFFF7D1FE0446684608F0F9F92046A3
:1014000004B010BD08F048FA6946201DFFF7C4FE7D
:101410000446684608F0ECF9002C0CBF4FF0FF3092
:10142000022004B010BD00BF2DE9F0439DB00C4672
:1014300005460021684608F01BFA2E1D214604A827
:1014400008F02AFA04A93046FFF796FE04A808F02F
:10145000CFF9214604A808F01FFA04A93046FFF787
:1014600023FE04F11006074604A808F0C1F931462E
:10147000684608F04DFA6846C54908F0D5FA0028D4
:1014800040F00A81C349684608F0CEFA002840F0CF
:101490008780C149684608F0C7FA00287AD005EB72
:1014A00087052146D5F8387204A808F0F5F904A993
:1014B0003846FFF7F3FA04A808F09AF9214604A881
:1014C000D5F8385208F0E8F9314608A808F0E4F9F0
:1014D00094F820308DF8303004F124010DA808F084
:1014E000DBF994F8342094F835308DF844208DF8E9
:1014F000453094F8362094F837308DF846208DF832
:101500004730228F638FADF84820ADF84A30A28F64
:10151000E38FADF84C20ADF84E30B4F84020B4F86D
:101520004230ADF85020ADF8523094F8442094F891
:1015300045308DF854208DF8553094F8462094F8B5
:1015400047308DF8562004F1480116A88DF8573021
:1015500008F0A2F9B4F85810B4F85C2094F85E30A2
:10156000ADF86810284604A9B4F85A50ADF86C20BC
:101570008DF86E30ADF86A50FFF7EAFB16A808F058
:1015800037F90DA808F034F908A808F031F904A8D3
:1015900008F02EF9684608F02BF91DB0BDE8F0837D
:1015A00005EB87082146D8F8109204A808F074F9D2
:1015B00004A94846FFF772FA04A808F019F9214671
:1015C00004A8D8F8108208F067F9314608A808F096
:1015D00063F994F820308DF8303004F124010DA81F
:1015E00008F05AF994F8342094F835308DF84420F6
:1015F0008DF8453094F8362094F837308DF8462031
:101600008DF84730228F638FADF84820ADF84A300F
:10161000A28FE38FADF84C20ADF84E30B4F84020E7
:10162000B4F84230ADF85020ADF8523094F8442070
:1016300094F845308DF854208DF8553094F84620B4
:1016400094F847308DF8562004F1480116A88DF81B
:10165000573008F021F9B4F85830B4F85A10B4F8FB
:101660005C20ADF86830ADF86A1094F85E30ADF8E3
:101670006C2004A940468DF86E30FFF769FB16A870
:1016800008F0B6F80DA808F0B3F808A808F0B0F80C
:1016900004A808F0ADF8FCE605EB87082146D8F869
:1016A000E89104A808F0F8F804A94846FFF7F6F90D
:1016B00004A808F09DF8214604A8D8F8E88108F0AD
:1016C000EBF8314608A808F0E7F894F820308DF8D8
:1016D000303004F124010DA808F0DEF894F834202D
:1016E00094F835308DF844208DF8453094F8362044
:1016F00094F837308DF846208DF84730228F638F6D
:10170000ADF84820ADF84A30A28FE38FADF84C20F9
:10171000ADF84E30B4F84020B4F84230ADF8502067
:10172000ADF8523094F8442094F845308DF85420A8
:101730008DF8553094F8462094F847308DF85620AF
:1017400004F1480116A88DF8573008F0A5F8B4F850
:101750005830B4F85A10B4F85C20ADF86830ADF8E1
:101760006A1094F85E30ADF86C2004A940468DF8FC
:101770006E30FFF7EDFA16A808F03AF80DA808F059
:1017800037F808A808F034F804A808F031F879E62A
:1017900020BF000028BF000030BF00002DE9F0414D
:1017A0009CB00C4606460021684608F061F82146C8
:1017B00004A808F071F804A9301DFFF775FC04F1C6
:1017C0001005074604A808F013F82946684608F0F3
:1017D0009FF86846B14908F027F9002840F0EE80EC
:1017E000AF49684608F020F9002878D1AD4968462D
:1017F00008F01AF900286CD08E37214604A856F854
:10180000276008F049F8294608A808F045F894F838
:1018100020308DF8303004F124010DA808F03CF898
:1018200094F8342094F835308DF844208DF8453004
:1018300094F8362094F837308DF846208DF84730EC
:10184000228F638FADF84820ADF84A30A28FE38F26
:10185000ADF84C20ADF84E30B4F84020B4F842302A
:10186000ADF85020ADF8523094F8442094F845304B
:101870008DF854208DF8553094F8462094F8473070
:101880008DF8562004F1480116A88DF8573008F05D
:1018900003F8B4F85810B4F85C2094F85E30B4F84B
:1018A0005A50ADF86810304604A9ADF86C208DF898
:1018B0006E30ADF86A50FFF74BFA16A807F098FFA4
:1018C0000DA807F095FF08A807F092FF04A807F0FD
:1018D0008FFF684607F08CFF1CB0BDE8F08107F170
:1018E0008403214604A856F8238007F0D5FF294633
:1018F00008A807F0D1FF94F820308DF8303004F1BB
:1019000024010DA807F0C8FF94F8342094F835306E
:101910008DF844208DF8453094F8362094F837300F
:101920008DF846208DF84730228F638FADF8482020
:10193000ADF84A30A28FE38FADF84C20ADF84E30B1
:10194000B4F84020B4F84230ADF85020ADF8523031
:1019500094F8442094F845308DF854208DF8553093
:1019600094F8462094F847308DF8562004F1480149
:1019700016A88DF8573007F08FFFB4F85830B4F838
:101980005A10B4F85C20ADF86830ADF86A1094F8DD
:101990005E30ADF86C2004A940468DF86E30FFF73C
:1019A000D7F916A807F024FF0DA807F021FF08A813
:1019B00007F01EFF04A807F01BFF17E707F17A03E3
:1019C000214604A856F8238007F066FF294608A898
:1019D00007F062FF94F820308DF8303004F12401D4
:1019E0000DA807F059FF94F8342094F835308DF89D
:1019F00044208DF8453094F8362094F837308DF82F
:101A000046208DF84730228F638FADF84820ADF81F
:101A10004A30A28FE38FADF84C20ADF84E30B4F8C9
:101A20004020B4F84230ADF85020ADF8523094F870
:101A3000442094F845308DF854208DF8553094F8B2
:101A4000462094F847308DF8562004F1480116A836
:101A50008DF8573007F020FFB4F85830B4F85A101A
:101A6000B4F85C20ADF86830ADF86A1094F85E30D8
:101A7000ADF86C2004A940468DF86E30FFF768F988
:101A800016A807F0B5FE0DA807F0B2FE08A807F0EB
:101A9000AFFE04A807F0ACFEA2E600BF20BF000026
:101AA00028BF000030BF00002DE9F0430C469DB078
:101AB00006460021684604F1100707F0D9FE3946B2
:101AC000684607F025FF351D214604A807F0E4FE0F
:101AD00004A92846FFF7E8FA804604A807F088FE24
:101AE000214604A807F0D8FE04A92846FFF702FB08
:101AF00004A807F07DFE6846C54907F095FF002859
:101B000040F00A81C349684607F08EFF002840F084
:101B10008780C149684607F087FF00287AD006EB26
:101B20008806214604A8D6F8385207F0B5FE394693
:101B300008A807F0B1FE94F820308DF8303004F199
:101B400024010DA807F0A8FE94F8342094F835304D
:101B50008DF844208DF8453094F8362094F83730CD
:101B60008DF846208DF84730228F638FADF84820DE
:101B7000ADF84A30A28FE38FADF84C20ADF84E306F
:101B8000B4F84020B4F84230ADF85020ADF85230EF
:101B900094F8442094F845308DF8542004F148011D
:101BA00094F846208DF8553016A894F847308DF8F3
:101BB00056208DF8573007F06FFEB4F85810B4F87F
:101BC0005C2094F85E30ADF86810284604A9B4F89B
:101BD0005A50ADF86C208DF86E30ADF86A50FFF7B2
:101BE000B7F816A807F004FE0DA807F001FE08A834
:101BF00007F0FEFD04A807F0FBFDD6F83842874940
:101C000004A807F035FE204604A9FEF747FF04A804
:101C100007F0EEFD684607F0EBFD1DB0BDE8F08370
:101C200006EB8805214604A8D5F8109207F034FE8B
:101C3000394608A807F030FE94F820308DF830308F
:101C400004F124010DA807F027FE94F8342094F83D
:101C500035308DF844208DF8453094F8362094F8CE
:101C600037308DF846208DF84730228F638FADF8DE
:101C70004820ADF84A30A28FE38FADF84C20ADF884
:101C80004E30B4F84020B4F84230ADF85020ADF8F2
:101C9000523094F8442094F845308DF854208DF853
:101CA000553094F8462094F847308DF8562004F1CA
:101CB000480116A88DF8573007F0EEFDB4F85830FB
:101CC000B4F85A10B4F85C20ADF86830ADF86A107A
:101CD00094F85E30ADF86C2004A948468DF86E305B
:101CE000FFF736F816A807F083FD0DA807F080FD72
:101CF00008A807F07DFD04A807F07AFDD5F810527A
:101D0000464904A807F0B4FD284604A9FEF7C6FE1C
:101D100004A807F06DFDFCE606EB8805214604A843
:101D2000D5F8E89107F0B8FD394608A807F0B4FDEA
:101D300094F820308DF8303004F124010DA807F01C
:101D4000ABFD94F8342094F835308DF844208DF8AC
:101D5000453094F8362094F837308DF846208DF8C9
:101D60004730228F638FADF84820ADF84A30A28FFC
:101D7000E38FADF84C20ADF84E30B4F84020B4F805
:101D80004230ADF85020ADF8523094F8442094F829
:101D900045308DF854208DF8553094F8462094F84D
:101DA00047308DF8562004F1480116A88DF85730B9
:101DB00007F072FDB4F85830B4F85A10B4F85C204B
:101DC000ADF86830ADF86A1094F85E30ADF86C206C
:101DD00004A948468DF86E30FEF7BAFF16A807F042
:101DE00007FD0DA807F004FD08A807F001FD04A8F1
:101DF00007F0FEFCD5F8E851084904A807F038FDC3
:101E0000284604A9FEF74AFE04A807F0F1FC79E68B
:101E100020BF000028BF000030BF000070C40000D9
:101E2000F8B5D0F8A03D1D2B6BDC03EB43035E013E
:101E3000074606F5187038440C4607F069FD06F5AC
:101E40001C70BD1904F11001384407F061FD94F8CD
:101E5000203085F8803204F1240105F5217007F067
:101E600057FD94F8343085F8943294F8353085F87D
:101E7000953294F8363085F8963294F8373085F8F4
:101E80009732238FA5F89832638FA5F89A32A38FE3
:101E9000A5F89C32E38FA5F89E32B4F84030A5F83F
:101EA000A032B4F84230A5F8A23294F8443085F854
:101EB000A43294F8453085F8A53294F8463085F878
:101EC000A63294F8473085F8A73206F52A703844D0
:101ED00004F1480107F01CFDB4F85830A5F8B832F9
:101EE000B4F85A30A5F8BA32B4F85C30A5F8BC3270
:101EF00094F85E3085F8BE32D7F8A03D0133C7F8BC
:101F0000A03DF8BD012380F8A43D70472DE9F043C2
:101F100099B00C46064601F11009684607F0BCFC72
:101F200004F12408494604A807F0B6FC94F82030D0
:101F30008DF82030414609A807F0AEFC94F8342013
:101F400094F835308DF834208DF8353094F83620FB
:101F500094F837308DF836208DF83730228F638F24
:101F6000ADF83820ADF83A30A28FE38FADF83C20C1
:101F7000ADF83E30B4F84020B4F84230ADF840201F
:101F8000ADF8423094F8442094F845308DF8442060
:101F900004F1480794F846208DF84530394694F806
:101FA00047308DF8462012A88DF8473007F074FCB2
:101FB000B4F85830B4F85A10B4F85C20ADF8583082
:101FC000ADF85A1094F85E30ADF85C2069463046A2
:101FD0008DF85E30FFF702FA054612A807F008FCFC
:101FE00009A807F005FC04A807F002FC684607F002
:101FF000FFFB012D00F0CE80022D6ED015B119B07F
:10200000BDE8F0832146684607F046FC494604A82F
:1020100007F042FC94F820308DF82030414609A8A2
:1020200007F03AFC394694F8355094F8347094F837
:10203000362094F83730208F8DF834708DF8355075
:10204000678FA58F8DF836208DF83730E28FB4F882
:102050004030ADF83800B4F84200ADF83A70ADF851
:102060003C5094F8447094F84550ADF83E20ADF8DB
:10207000403094F8462094F84730ADF8420012A85A
:102080008DF845508DF846208DF847308DF8447016
:1020900007F002FCB4F85810B4F85A50B4F85C20B9
:1020A00094F85E30ADF8581030466946ADF85A5095
:1020B000ADF85C208DF85E30FFF7B6F912A807F096
:1020C00097FB09A807F094FB04A807F091FB68466A
:1020D00007F08EFB19B0BDE8F0832146684607F093
:1020E000DBFB494604A807F0D7FB94F820308DF8B5
:1020F0002030414609A807F0CFFB94F8355094F8FA
:10210000362094F83730208F8DF83550394694F8C2
:102110003470A58F8DF834708DF83620678FE28F7C
:102120008DF83730ADF83800B4F84030B4F84200DC
:10213000ADF83A70ADF83C5094F8447094F84550BE
:10214000ADF83E20ADF8403094F8462094F8473082
:10215000ADF8420012A88DF845508DF846208DF854
:1021600047308DF8447007F097FBB4F85810B4F876
:102170005A50B4F85C2094F85E30ADF858103046F0
:102180006946ADF85A50ADF85C208DF85E30FFF727
:102190008BFC93E72146684607F07EFB494604A87E
:1021A00007F07AFB94F820308DF82030414609A8DA
:1021B00007F072FB94F8355094F8362094F83730D5
:1021C000208F8DF83550394694F83470A58F8DF8EE
:1021D00034708DF83620678FE28F8DF83730ADF888
:1021E0003800B4F84030B4F84200ADF83A70ADF8B9
:1021F0003C5094F8447094F84550ADF83E20ADF84A
:10220000403094F8462094F84730ADF8420012A8C8
:102210008DF845508DF846208DF847308DF8447084
:1022200007F03AFBB4F85810B4F85A50B4F85C20F0
:1022300094F85E30ADF8581030466946ADF85A5003
:10224000ADF85C208DF85E30FFF7A8FA36E700BFE6
:1022500090F8A43D002B00F08380F0B5D0F8A03DAD
:10226000002B99B0064674DD00F518740025214650
:10227000684607F011FB04F1100104A807F00CFBFD
:1022800094F820308DF8203004F1240109A807F0DB
:1022900003FB94F8341094F8350094F836C094F8A1
:1022A00037E0278F628FA38F8DF834108DF83500BB
:1022B000E18FB4F840008DF836C08DF837E0B4F8FF
:1022C00042C094F844E0ADF83870ADF83A2094F884
:1022D000457094F84620ADF83C30ADF83E1094F8C7
:1022E0004730ADF8400004F1480112A8ADF842C0F3
:1022F0008DF844E08DF845708DF846208DF8473014
:1023000007F0CAFAB4F8581094F85E30B4F85C20BC
:10231000B4F85A70ADF85810304669468DF85E3002
:10232000ADF85C20ADF85A70FFF7F0FD12A807F089
:102330005FFA09A807F05CFA04A807F059FA6846A2
:1023400007F056FAD6F8A03D0135AB4204F160041F
:102350008DDC0023C6F8A03D86F8A43D19B0F0BD81
:10236000704700BFF8B500F503773E4600F5F274FC
:1023700000F50D7554F8040F00F0DEFF56F8040F59
:10238000FEF792F855F8040F01F01CF8BC42F1D1A9
:10239000F8BD00BF2DE9F0418046B4B0061D002411
:1023A000F1E10021684607F063FA1CA83146FEF708
:1023B0006DFF1CA9684607F0B3FA1CA807F018FACD
:1023C00069461CA807F068FA1CA93046FEF76CFEA7
:1023D00005461CA807F00CFA69461CA807F05CFA31
:1023E0001CA93046FEF786FE1CA807F001FAE0495A
:1023F00004A807F03DFA002108A807F039FA0021E7
:102400000DA807F035FADA498DF8444016A808EB14
:1024100085058DF845408DF846408DF84740ADF86C
:102420004840ADF84A40ADF84C40ADF84E40ADF8EC
:102430005040ADF852408DF854408DF855408DF81D
:1024400056408DF8574007F013FA0123694604A857
:10245000ADF86C30ADF86840ADF86A408DF86E406C
:1024600007F056FA04A91CA8D5F8E8718DF86E405B
:1024700007F012FA08A920A807F00EFA9DF83030EC
:102480008DF890300DA925A807F006FA9DF8442094
:102490009DF845308DF8A4208DF8A5309DF8462094
:1024A0009DF847308DF8A6208DF8A730BDF848205C
:1024B000BDF84A30ADF8A820ADF8AA30BDF84C20E0
:1024C000BDF84E30ADF8AC20ADF8AE30BDF85020C0
:1024D000BDF85230ADF8B020ADF8B2309DF85420C0
:1024E0009DF855308DF8B42016A99DF856208DF82A
:1024F000B5302EA89DF857308DF8B6208DF8B7303E
:1025000007F0CAF9BDF86830BDF86C20ADF8C830E6
:102510001CA99DF86E30ADF8CC203846BDF86A7025
:102520008DF8CE30ADF8CA70FEF712FC2EA807F079
:102530005FF925A807F05CF920A807F059F91CA855
:1025400007F056F9D5F8E80100F0F6FE04A91CA83A
:10255000D5F8107207F0A0F908A920A807F09CF997
:102560009DF830308DF890300DA925A807F094F92A
:102570009DF844209DF845308DF8A4208DF8A530B5
:102580009DF846209DF847308DF8A6208DF8A7309D
:10259000BDF84820BDF84A30ADF8A820ADF8AA3003
:1025A000BDF84C20BDF84E30ADF8AC20ADF8AE30E3
:1025B000BDF85020BDF85230ADF8B020ADF8B230C3
:1025C0009DF854209DF855308DF8B42016A99DF83B
:1025D00056208DF8B5302EA89DF857308DF8B620CE
:1025E0008DF8B73007F058F9BDF86830BDF86C20A9
:1025F000ADF8C8301CA99DF86E30ADF8CC20384637
:10260000BDF86A708DF8CE30ADF8CA70FEF7A0FB49
:102610002EA807F0EDF825A807F0EAF820A807F0A3
:10262000E7F81CA807F0E4F8D5F81002FDF73CFF26
:1026300004A91CA8D5F8387207F02EF908A920A81B
:1026400007F02AF99DF830308DF890300DA925A8B3
:1026500007F022F99DF844209DF845308DF8A4201C
:102660008DF8A5309DF846209DF847308DF8A620BE
:102670008DF8A730BDF84820BDF84A30ADF8A82045
:10268000ADF8AA30BDF84C20BDF84E30ADF8AC2006
:10269000ADF8AE30BDF85020BDF85230ADF8B020E6
:1026A000ADF8B2309DF854209DF855308DF8B42027
:1026B00016A99DF856208DF8B5302EA89DF85730F4
:1026C0008DF8B6208DF8B73007F0E6F8BDF8683021
:1026D000BDF86C20ADF8C8301CA99DF86E30ADF87F
:1026E000CC203846BDF86A708DF8CE30ADF8CA708F
:1026F000FEF72EFB2EA807F07BF825A807F078F848
:1027000020A807F075F81CA807F072F8D5F8380271
:1027100000F058FED5F8E87115491CA807F0A8F894
:102720001CA93846FEF7BAF91CA807F061F8D5F8DD
:1027300010720F491CA807F09BF81CA93846FEF739
:10274000ADF91CA807F054F8D5F8385208491CA870
:1027500007F08EF81CA92846FEF7A0F91CA807F080
:1027600047F816A807F044F80DA807F041F801E073
:1027700070C4000008A807F03BF804A807F038F878
:10278000684607F035F83046FEF72AFD00283FF787
:1027900008AE34B0BDE8F081F0B56A4DB1B0064680
:1027A000FFF7F8FD2946684607F062F804A8002103
:1027B00007F05EF809A8002107F05AF8002429461E
:1027C00012A801258DF834408DF835408DF836403B
:1027D0008DF83740ADF83840ADF83A40ADF83C40A0
:1027E000ADF83E40ADF84040ADF842408DF8444071
:1027F0008DF845408DF846408DF8474007F038F891
:1028000068465149ADF85840ADF85A408DF85E40E1
:10281000ADF85C5007F08CF804A84C4907F088F834
:102820004FF4C87764234FF4FA72694618A8ADF8DC
:102830003C20ADF83E208DF834308DF835308DF8E1
:1028400036308DF83740ADF838508DF85E50ADF821
:102850003A7007F021F804A91CA807F01DF89DF8AC
:1028600020308DF8803009A921A807F015F89DF8CF
:1028700034209DF835308DF894208DF895309DF8F2
:1028800036209DF837308DF896208DF89730BDF8BA
:102890003820BDF83A30ADF89820ADF89A30BDF840
:1028A0003C20BDF83E30ADF89C20ADF89E30BDF820
:1028B0004020BDF84230ADF8A020ADF8A2309DF820
:1028C00044209DF845308DF8A42012A99DF846209B
:1028D0008DF8A5302AA89DF847308DF8A6208DF8F0
:1028E000A73006F0D9FFBDF85830BDF85C20BDF820
:1028F0005A40ADF8B83018A99DF85E30ADF8BC204C
:1029000030468DF8BE30ADF8BA40FFF7FFFA2AA87E
:1029100006F06EFF21A806F06BFF1CA806F068FF0A
:1029200018A806F065FF12A806F062FF09A806F0D5
:102930005FFF04A806F05CFF684606F059FF31B05F
:10294000F0BD00BF70C4000038BF000028BF000009
:10295000F0B5B1B007460E4668466D4906F088FFEF
:10296000002104A806F084FF002109A806F080FFDA
:10297000002412A866498DF8344001258DF83540B1
:102980008DF836408DF83740ADF83840ADF83A4014
:10299000ADF83C40ADF83E40ADF84040ADF84240A7
:1029A0008DF844408DF845408DF846408DF84740FD
:1029B00006F05EFFADF85840ADF85A408DF85E4025
:1029C000ADF85C50002E40F084805249684606F015
:1029D000AFFF514904A806F0ABFF18A869468DF86F
:1029E0005E6006F059FF04A91CA806F055FF9DF88B
:1029F00020308DF8803009A921A806F04DFF9DF800
:102A000034209DF835308DF894208DF895309DF860
:102A100036209DF837308DF896208DF89730BDF828
:102A20003820BDF83A30ADF89820ADF89A30BDF8AE
:102A30003C20BDF83E30ADF89C20ADF89E30BDF88E
:102A40004020BDF84230ADF8A020ADF8A2309DF88E
:102A500044209DF845308DF8A4208DF8A5309DF8D0
:102A600046209DF847308DF8A62012A92AA88DF897
:102A7000A73006F011FFBDF85820BDF85A30ADF868
:102A8000B82018A9BDF85C20ADF8BA3038469DF8DA
:102A90005E30ADF8BC208DF8BE30FFF737FA2AA8BB
:102AA00006F0A6FE21A806F0A3FE1CA806F0A0FED4
:102AB00018A806F09DFE12A806F09AFE09A806F0D6
:102AC00097FE04A806F094FE684606F091FE31B029
:102AD000F0BD3846FFF75EFC0E49684606F028FF59
:102AE0000D4904A806F024FFFF224FF4E17318A853
:102AF0008DF834408DF836408DF837406946ADF892
:102B000038508DF85E508DF83520ADF83A3068E7D2
:102B100070C4000040BF000020BF000070B5674DCA
:102B2000B0B00646FFF736FC2946684606F0A0FE20
:102B300004A8002106F09CFE09A80021002406F04C
:102B400097FE294612A801258DF834408DF83540AE
:102B50008DF836408DF83740ADF83840ADF83A4042
:102B6000ADF83C40ADF83E40ADF84040ADF84240D5
:102B70008DF844408DF845408DF846408DF847402B
:102B800006F076FE68464E49ADF85840ADF85A401A
:102B90008DF85E40ADF85C5006F0CAFE04A84949C5
:102BA00006F0C6FEFF224FF4E173694618A88DF8BF
:102BB0003620ADF83A308DF834408DF835408DF838
:102BC0003740ADF838508DF85E5006F065FE04A928
:102BD0001CA806F061FE9DF820308DF8803009A910
:102BE00021A806F059FE9DF834209DF835308DF867
:102BF00094208DF895309DF836209DF837308DF86B
:102C000096208DF89730BDF83820BDF83A30ADF8F1
:102C10009820ADF89A30BDF83C20BDF83E30ADF8B4
:102C20009C20ADF89E30BDF84020BDF84230ADF894
:102C3000A020ADF8A2309DF844209DF845308DF8D5
:102C4000A42012A99DF846208DF8A5302AA89DF849
:102C500047308DF8A6208DF8A73006F01DFEBDF890
:102C60005830BDF85C20BDF85A40ADF8B83018A90E
:102C70009DF85E30ADF8BC2030468DF8BE30ADF822
:102C8000BA40FFF743F92AA806F0B2FD21A806F0E2
:102C9000AFFD1CA806F0ACFD18A806F0A9FD12A80F
:102CA00006F0A6FD09A806F0A3FD04A806F0A0FD05
:102CB000684606F09DFD30B070BD00BF70C40000D6
:102CC00048BF000020BF000010B5D0F8A83D033B6E
:102CD00084B00446062B19D8DFE803F01D2732180C
:102CE0004150040090F8AC3D002B5ED1D0F8B00DFF
:102CF000344B1B680293029B181A07F0DFFC216813
:102D000007F0F0FE10B10723C4F8A83D2046FFF7F6
:102D100029FB04B010BDFFF73FFD0823C4F8A83D10
:102D20002046FFF71FFB04B010BD0121FFF710FE86
:102D30000923C4F8A83D2046FFF714FB04B010BDDA
:102D4000204AD0F8B03D126803920398C01A07F0E9
:102D5000B5FC216807F0C6FE0028D4D1D6E7FFF7FE
:102D6000DDFE0023082284F8AC3D84F8AD3DC4F8B4
:102D7000A82D2046FFF7F6FA04B010BD124B1B78C1
:102D8000002BC3D0114B1B78DB07BFD50D4B104A6E
:102D90001B6812689B1A0E2BB8D990F8AD3D002B1A
:102DA000B4D00423C4F8A83DB0E70021FFF7D0FD5C
:102DB000044B1A6801920198C4F8B00D0522C4F8BA
:102DC000A82D96E708CCFF1F68CDFF1F80CDFF1F01
:102DD000F8CEFF1F10B504310446FEF71BFA20465B
:102DE00010BD00BF2DE9F04F4FF4FA60154685B0D5
:102DF0000E4604F0B1FD2846564906F015FE564928
:102E00000028284614BF1424002406F00DFE534960
:102E10000028284618BF282406F006FE06F11007F1
:102E200000284F49384618BF3C2406F0FDFD4D49A7
:102E30000546384606F0F8FD68B9003538464A4977
:102E400018BF012506F0F0FD60B964B128467DB9D0
:102E500005B0BDE8F08F38464349022506F0E4FD91
:102E60000028F2D01CB9204605B0BDE8F08F03253C
:102E700096F8343096F835200393029296F836305F
:102E800096F837203949019206F148000093B6F8C8
:102E900038A0B6F83A90B6F83E80B78F06F0C4FD79
:102EA00029468346601CB6F8585004F029FC039B61
:102EB000A01C194604F024FC029AE01C114604F000
:102EC0001FFC0099201D04F01BFC0199601D04F0FB
:102ED00017FC4FEA1A21A01D04F012FC5FFA8AF1D8
:102EE000E01D04F00DFC4FEA192104F1080004F084
:102EF00007FC5FFA89F104F1090004F001FC4FEAD4
:102F0000182104F10A0004F0FBFB5FFA88F104F1D8
:102F10000B0004F0F5FB390A04F10C0004F0F0FB9F
:102F2000F9B204F10D0004F0EBFBBBFA8BF104F1F4
:102F30000E00490904F0E4FB290A04F10F0004F033
:102F4000DFFB04F11000E9B204F0DAFB012005B068
:102F5000BDE8F08F38BF000040BF000048BF000050
:102F600020BF000028BF000030BF000050BF00009D
:102F7000F0B516469DB00F4600211C46054606F0EA
:102F800077FC3046D04906F04FFD002800F08580E0
:102F9000CE49229806F048FD002800F085802146A1
:102FA00004A806F079FC04F1100108A806F074FCEE
:102FB00094F820308DF8303004F124010DA806F08B
:102FC0006BFC94F8342094F835308DF844208DF85B
:102FD000453094F8362094F837308DF846208DF837
:102FE0004730228F638FADF84820ADF84A30A28F6A
:102FF000E38FADF84C20ADF84E30B4F84020B4F873
:103000004230ADF85020ADF8523094F8442094F896
:1030100045308DF8542004F1480194F846208DF88D
:10302000553016A894F847308DF856208DF8573053
:1030300006F032FCB4F85830B4F85A10B4F85C20FA
:10304000ADF86830ADF86A1094F85E309F498DF89D
:103050006E306846ADF86C2006F00AFC6A4604A99A
:103060003846FFF7BFFE0446684606F0C1FB16A8C7
:1030700006F0BEFB0DA806F0BBFB08A806F0B8FBE7
:1030800004A806F0B5FB002C00F00C8190492846FE
:1030900006F04EFC28461DB0F0BD8E49284606F0CD
:1030A00047FC28461DB0F0BD8B49229806F0BCFCB9
:1030B00000287BD0214604A806F0EEFB04F11001A5
:1030C00008A806F0E9FB94F820308DF8303004F1C0
:1030D00024010DA806F0E0FB94F8342094F8353074
:1030E0008DF844208DF8453094F8362094F8373028
:1030F0008DF846208DF84730228F638FADF8482039
:10310000ADF84A30A28FE38FADF84C20ADF84E30C9
:10311000B4F84020B4F84230ADF85020ADF8523049
:1031200094F8442094F845308DF8542004F1480177
:1031300094F846208DF8553016A894F847308DF84D
:1031400056208DF8573006F0A7FBB4F85830B4F885
:103150005A10B4F85C20ADF86830ADF86A1094F8F5
:103160005E305D498DF86E306846ADF86C2006F033
:103170007FFB6A4604A93846FFF734FE04466846DA
:1031800006F036FB16A806F033FB0DA806F030FB60
:1031900008A806F02DFB04A806F02AFB002C00F07E
:1031A00081804E49284606F0C3FB7AE74C492298B5
:1031B00006F03AFC002800F08180214604A806F0C1
:1031C0006BFB04F1100108A806F066FB94F82030B0
:1031D0008DF8303004F124010DA806F05DFB94F861
:1031E000342094F835308DF844208DF8453094F82B
:1031F000362094F837308DF846208DF84730228FEE
:10320000638FADF84820ADF84A30A28FE38FADF858
:103210004C20ADF84E30B4F84020B4F84230ADF850
:103220005020ADF8523094F8442094F845308DF891
:10323000542004F1480194F846208DF8553016A822
:1032400094F847308DF856208DF8573006F024FB5F
:10325000B4F85830B4F85A10B4F85C20ADF86830BF
:10326000ADF86A1094F85E301D498DF86E306846EE
:10327000ADF86C2006F0FCFA6A4604A93846FFF760
:10328000B1FD0446684606F0B3FA16A806F0B0FA97
:103290000DA806F0ADFA08A806F0AAFA04A806F0F0
:1032A000A7FA34B90F49284606F042FB28461DB05C
:1032B000F0BD0D49284606F03BFBF2E60B492846D7
:1032C00006F036FBEDE600BF58BF000038BF000037
:1032D00064BF00001CC0000040BF0000A8BF000089
:1032E00048BF000090BF0000D4BF000000C0000035
:1032F00038B500211546044606F0BAFA28460849B2
:1033000006F092FB28B90749204606F011FB20463B
:1033100038BD41F2883004F01FFB05F063F800BFB0
:1033200058BF00001CC0000004F0A2B910B504464C
:10333000FDF71CFB204610BD70B584B00446FDF7B8
:1033400057FE70B194F86630B4F84000B4F84250BB
:103350004BB901900295009320461A461946FDF795
:1033600053FB04B070BD94F83F6094F83E3094F87D
:103370003D2094F83C100190029500962046FDF700
:1033800043FB04B070BD00BF10B50446FDF7EEFA74
:103390000123C4F88C300023002284F88030A26717
:1033A000C4F88420C4F88820C4F8A020C4F8A4205D
:1033B000E367C4F89030C4F89430C4F898302046DD
:1033C00010BD00BF2DE9F04F044691B094F83C3099
:1033D000049300F1500194F83F3005930CA894F841
:1033E0003DA094F83EB0B4F84060B4F84250B4F850
:1033F000609006F051FAB4F862300A9394F84C30B9
:10340000069394F84D30079394F84E300893204675
:1034100094F84F30B4F86470099394F86680FDF71F
:10342000EDFD40B9B8F1000F11D10CA806F0E0F99C
:1034300011B0BDE8F08F002302958DE848001A46D0
:1034400019462046FDF7E0FAB8F1000FEDD020460E
:10345000FDF7DAFD002840F08880484607F032F991
:1034600001462046FDF7D8FD0B90A81B013007F060
:1034700029F98046384607F025F90146404607F00D
:1034800029FA06F061FF06F073FD0B9B8046184693
:10349000894607F017F949460B90404607F030F887
:1034A00007F010F90B9B0146184607F013FA014686
:1034B0002046FDF7B1FDD4F88C30012B80466CD04E
:1034C000022B73D0052B00F08180042B03D08BB12D
:1034D000D4F878803EE0D4F878800A9807F0F2F8C3
:1034E000414607F0EBFA002834D000220023C4F84C
:1034F0008C20A367D4F898309D4200D013B9731E76
:10350000C4F898303B449D42B6BF2B46C4F898306F
:10351000C4F89850C4F8903047490CA806F084FAD3
:10352000002863D0D4F89400D4F89050059B009301
:1035300001905B465246049902952046FDF7AAFA8F
:10354000D4F89030D4F8788001330122C4F8943054
:10355000C4F88C203949404607F000F8A0670CA851
:1035600006F046F911B0BDE8F08F099AC4F89460EE
:10357000002302950196009206A9A36720460EC972
:10358000FDF788FA2C490CA806F04EFA00280CBF6B
:1035900028463046C4F898005FE7D4F890309D4242
:1035A00035DC02220023C4F88C20A367099B029516
:1035B0000196009306A90EC92046FDF76BFA052374
:1035C000C4F89060C4F89460C4F88C30404607F0AA
:1035D00079F80146A06F07F07BFA38B34FF0000886
:1035E0000423C4F87880C4F88C3076E7D4F890309F
:1035F000059A0092ED1A3544013F2F445B4652462E
:103600000499029701952046FDF744FA98E707F0E0
:1036100059F80146A06F07F05BFA00283FF458AF55
:103620000023A3670023C4F88C3063E7D4F88C3000
:10363000002B7FF44DAF5DE750BF00000000A041BC
:1036400043680B7043681B0A4B70C3888B70C37947
:10365000CB7083680B7183681B0A4B7143898B7134
:10366000C37ACB71082070470B7843604A7843EAED
:10367000022343608A7843EA02434360CA7843EAFC
:10368000026343600B7983604A7943EA02238360D3
:103690008A7943EA02438360CA7943EA026383601A
:1036A000082070470048704728C200000048704753
:1036B00038C20000F0B50C460A788280064614F83D
:1036C000010F002342EA0022B2801A4614F8010FCB
:1036D00098400833202B42EA0002F7D1971D062FAD
:1036E00058D901F1050E551D73464C1913F8010FF9
:1036F00003F8010CA342F9D100234B5518460D44A1
:10370000C6F808E015F8014F84400830202843EA45
:103710000403F7D1381D0344834209D909320A440E
:103720000446013412F8015F02F8015CA342F8D8A4
:103730000138CF180024084407F8014C2246F060F5
:1037400017F8015B95400832202A44EA0504F7D1B6
:10375000181D0444A04209D203330B44024601322F
:1037600013F8015F03F8015CA242F8D30D19013888
:103770000844002305F8013C3061A8786B780A5DA5
:10378000ED78010441EA0323134343EA0563201D56
:103790007361F0BD551D01F1050EADE7004870479E
:1037A0005CC200000048704778C200000B78F0B49B
:1037B0000371002306460C461D4614F8012F9A405B
:1037C0000833202B45EA0205F7D1681D052801F1D1
:1037D000040708D92C1D3B460C4413F8012F03F8AD
:1037E000012C9C42F9D10D4400232B71B760F0BC31
:1037F000704700BF004870479CC2000000487047F7
:10380000B0C2000000487047BCC5000000487047C7
:10381000D4C200000023F0B51A464D1E15F8014F22
:103820009C400833202B42EA0402F7D1171D042FD5
:1038300040F2C78001F1030ED61C73468D1913F8B0
:10384000014F03F8014CAB42F9D100238B551C46C4
:103850000E44C0F804E016F8015FA5400834202C9F
:1038600043EA0503F7D13E1D33449E4209D2073295
:103870000A443446013412F8015F02F8015C9C42AC
:10388000F8D3721ECE180A44002406F8014C826058
:10389000CA5C02735F1C224616F8015FA54008341B
:1038A000202C42EA0502F7D13E1D3244964209D24D
:1038B0000433551E0B440D4413F8014F03F8014C1B
:1038C0009D42F9D18B18013E00240E4403F8014CAF
:1038D00006618D5C05755D7845759D788575DD782B
:1038E000C5751D7905835E7945EA062505839D79B1
:1038F0004583DE7945EA062545831D7A85835E7A10
:1039000045EA062585839D7AC583DE7A45EA062544
:10391000C5831D7B05845E7B45EA062505849D7B6A
:103920004584DE7B45EA062545841D7C80F82450CD
:103930005D7C80F825509B7C80F8263002F11305D1
:1039400023464C5D80F827400D441F4602F11406C3
:1039500015F8014F9C400833202B47EA0407F7D1A4
:10396000351D2F44BD420AD202F117037C1E0B44C1
:103970000C4413F8012F03F8012C9C42F9D1CB1908
:10398000013D0D44002203F8012C8562CA5D828549
:10399000597842EA012282859A78C285D97842EA2A
:1039A0000122C2851A790286597942EA01220286E9
:1039B0009A7980F83220DB7980F8333007F10800FB
:1039C000F0BDD61C01F1030E3FE700BF0048704771
:1039D000E8C1000000487047F8C2000003790B708E
:1039E000012070470B780371012070470048704731
:1039F000E8C10000004870471CC300000022F0B579
:103A000013464D1E15F8014F94400832202A43EA10
:103A10000403F7D11F1D042F40F2988001F1030E1B
:103A2000DE1C72468D1912F8014F02F8014CAA42B1
:103A3000F9D100228A5514460E44C0F804E016F865
:103A4000015FA5400834202C42EA0502F7D13E1D53
:103A50003244964209D207330B443446013413F8FA
:103A6000015F03F8015C9442F8D3731E8E180025A1
:103A70000B4406F8015C2C4683602B4616F8015B6C
:103A8000A5400834202C43EA0503F7D1161D334422
:103A90009E4209D203320A443446013412F8015FCF
:103AA00002F8015C9C42F8D3CC18013E0E4400227F
:103AB00004F8012CC660CD5C057465784574A57862
:103AC0008574E578C57425798582667945EA062589
:103AD0008582A579C582E67945EA0625C582257ADB
:103AE0000583667A45EA06250583A47A448303F1B3
:103AF0000B0517464E5D44EA062444830D4403F14A
:103B00000C0615F8014F94400832202A47EA0407B2
:103B1000F7D1351D2F44BD4209D20F337C1E0B4413
:103B20000C4413F8012F03F8012C9C42F9D1CA1957
:103B3000013D0D44002302F8013CC561CB5D0384C7
:103B4000527843EA02230384B81CF0BDDE1C01F165
:103B5000030E6EE70048704708C200000048704737
:103B600040C300000023F0B406464C1E1D4614F866
:103B7000012F9A400833202B45EA0205F7D1281D72
:103B8000042801F1030708D9EC1C3B460C4413F848
:103B9000012F03F8012C9C42F9D10D440023EB7056
:103BA0007760F0BC704700BF0048704708C2000053
:103BB0000048704764C300000023F0B44D1E1C464B
:103BC00015F8012F9A400833202B44EA0204F7D15C
:103BD000261D042E01F1030708D9E51C3B460D44C0
:103BE00013F8012F03F8012C9D42F9D10B19002283
:103BF000DA7047608B5D0372601DF0BC704700BFD8
:103C000000487047CCC100000048704788C30000DE
:103C10000023F0B406464C1E1D4614F8012F9A40AE
:103C20000833202B45EA0205F7D1281D042801F1AD
:103C3000030708D9EC1C3B460C4413F8012F03F88A
:103C4000012C9C42F9D10D440023EB707760F0BC4D
:103C5000704700BF00487047CCC100000048704763
:103C600064C3000000207047002070470048704780
:103C7000A8C5000000487047ACC300000B78F0B442
:103C80000371002306460C461D4614F8012F9A4086
:103C90000833202B45EA0205F7D1681D052801F1FC
:103CA000040708D92C1D3B460C4413F8012F03F8D8
:103CB000012C9C42F9D10D4400232B71B760F0BC5C
:103CC000704700BF00487047A8C500000048704713
:103CD000D0C3000030B40B4B0B4A18680B4C82B0B9
:103CE0000190019D1B680093009B0948C2F8B03DFC
:103CF000012382F8AD3D25600B71886002B030BCB5
:103D0000704700BF08CCFF1F20BEFF1F64B6FF1F17
:103D1000F4C300000320704700487047CCC1000086
:103D20000048704788C30000032070470048704770
:103D300008C200000048704740C3000003207047DD
:103D400000487047A8C5000000487047ACC3000099
:103D50000320704700487047E8C1000000487047E2
:103D6000F8C2000090F8F804704700BF70B5051D58
:103D7000064609D000F5F274A54205D0103C204655
:103D800005F036FDA542F9D1304670BD10B50448A6
:103D90000C46FEF7B7F80122024B2271A36010BD5A
:103DA00020BEFF1FF8C30000F0B5114A114B106888
:103DB000114ED3B00C460290029F12680192019AF4
:103DC000C3F8B02D194603A807AD3760FFF702F816
:103DD00003A8294600234FF4967205F03BFE03A882
:103DE00005F006FD0123A560237153B0F0BD00BFAF
:103DF00008CCFF1F20BEFF1F64B6FF1F30B504466E
:103E0000D9B00D4601A8002105F032FD616801A876
:103E100005F08EFD01A905A805F03EFD0DAC05AA33
:103E200009A80B49FFF764FA214600234FF4967264
:103E300009A805F00FFE09A805F0DAFC05A805F0B1
:103E4000D7FC6C6001A805F0D3FC59B030BD00BFB1
:103E500020BEFF1F037970B50B70064680680D46C3
:103E600007F00EFE2A460446002324FA03F1083325
:103E7000202B02F8011FF8D1B168681D224603F01B
:103E80005DFB601D70BD00BF70B5064640680D4605
:103E900007F0F6FD6A1E0446002324FA03F10833F6
:103EA000202B02F8011FF8D17168281D224603F06B
:103EB00045FB201D70BD00BF70B5064640680D462D
:103EC00007F0DEFD6A1E0446002324FA03F10833DE
:103ED000202B02F8011FF8D122467168281D2544C5
:103EE00003F02CFB337A2B71601D70BD70B5064654
:103EF00040680D4607F0C4FD6A1E0446002324FAFC
:103F000003F10833202B02F8011FF8D17168281D36
:103F1000224603F013FB201D70BD00BF2DE9F041C8
:103F2000054640680E4607F0ABFD721E04460023AE
:103F300024FA03F10833202B02F8011FF8D122469E
:103F40006968301D03F0FAFAA86807F099FDE11CD2
:103F5000024631440434002322FA03F00833202BB4
:103F600001F8010FF8D104343019A968144403F0A2
:103F7000E5FAE86807F084FD32190746002327FABE
:103F800003F10833202B02F8011BF8D104343A4620
:103F90003019E96803F0D2FA3A192B7CB354B318FC
:103FA000697C5970A97C9970E97CD970A98A1971CA
:103FB000A98A090A5971E98A9971E98A090AD971A4
:103FC000298B1972298B090A5972698B9972698B2D
:103FD00002F10B03090AF154E869F71802F10C0425
:103FE00007F04EFD3A468046002328FA03F10833D5
:103FF000202B02F8011FF8D1043430194246E96938
:1040000003F09CFA08EB04002B8C33542B8C0644F1
:104010001B0A73700230BDE8F08100BF2DE9F0414A
:10402000044640680E4607F02BFD721E054600232D
:1040300025FA03F10833202B02F8011FF8D12A4694
:104040006168301D03F07AFAA06807F019FDEA1CD8
:10405000074632440435002327FA03F10833202BA6
:1040600002F8011FF8D104353A467019A16803F02F
:1040700065FA7A19237BB3542069B718551C07F0E9
:10408000FFFC3A468046002328FA03F10833202B30
:1040900002F8011FF8D1043542467019216903F076
:1040A0004DFA08EB0502237DB354B318617D5970B6
:1040B000A17D9970E17DD970218B1971218B090A3D
:1040C0005971618B9971618B090AD971A18B197230
:1040D000A18B090A5972E18B9972E18B090AD97295
:1040E000218C1973218C090A5973618C9973618C25
:1040F000090AD97394F82410197494F82510597486
:1041000094F82610997402F1130194F8273073542F
:10411000A06A751802F1140707F0B2FC2946804620
:10412000002328FA03F20833202B01F8012FF8D1DD
:104130003D1DA16A7019424603F000FA08EB050024
:10414000A38D3354A38D31181B0A4B70E38D8B70F4
:10415000E38D1B0ACB70238E0B71238E1B0A4B71D0
:1041600094F832308B7194F83330CB710830BDE85D
:10417000F08100BF43682DE9F0470B7043681B0ACC
:104180004B70C3888B70C379CB704368002B00F0F1
:1041900085800A4600250426C36853F8253013712C
:1041A0001C0C1F0A1B0E94715771D37143680135A3
:1041B000AB42344602F1040206F10406ECD804F1E5
:1041C000080204F1050A04F1060904F1070804F1E4
:1041D000090C04F10A0E04F10B0517460C340369AF
:1041E0008B5503691B0A01F80A30438A01F809302C
:1041F000C37C01F808300369F3B101EB070E754683
:104200000022836953F822300EF822301C0C1E0A5B
:104210001B0EAC706E70EB700369013293423C462A
:1042200005F1040507F10407EBD804F1050C04F1CE
:10423000060EE51D3A460834C3698B54C3691B0A50
:1042400001F80C30C38B01F80E30C37F4B55C369A6
:104250000BB30F4680460026D8F8243053F82600CA
:1042600007F00EFCB10005463A19002325FA03F0C9
:104270000833202B02F8010BF8D1D8F8243004348D
:10428000381959582A4603F059F9D8F81C30013624
:10429000B3422C44E0D82046BDE8F08708221746F8
:1042A0000C240B254FF00A0E4FF0090C4FF00708B5
:1042B0004FF006094FF0050A042690E770B5037920
:1042C0000B70064680680D4607F0DAFB2A46044666
:1042D000002324FA03F10833202B02F8011FF8D140
:1042E000B168681D224603F029F9601D70BD00BF4A
:1042F000F8B583880B7083881B0A4B70064680686C
:104300000D4607F0BDFB030E010A020C6B71A8708D
:104310002A71E97002460446B168A81D03F00EF93F
:10432000F06807F0ADFB611D024629440634002306
:1043300022FA03F00833202B01F8010FF8D10434DE
:104340002819F168144403F0F9F8306907F098FB74
:104350002A190746002327FA03F10833202B02F815
:10436000011BF8D1043428193A46316903F0E6F804
:10437000381973692B540544190A1A0C1B0E6970FD
:10438000AA70EB700430F8BD084604F031BF00BFDE
:1043900004F044BE2DE9F04F43680C689C4283B0A2
:1043A00005460E4600F2B3806C60002C00F0B88029
:1043B00005F1080C334600274FF0040E9C795A791A
:1043C000197993F80780E868240444EA02220A4332
:1043D00042EA0862AA60DCF8002040F827206A68F8
:1043E0000137BA42714603F104030EF1040EE5D819
:1043F00001F1080847464B1D881DCA1D01F1090A35
:1044000001F10A0B01F10B0901F10C04305CF35CC2
:1044100016F80E1016F802E02A69000440EA032399
:104420000B4343EA0E63934200F290802B613BB34F
:1044300005F1140CF3194FF0000E9C785A78197896
:1044400093F80380A869240444EA02220A4342EA5A
:1044500008626A61DCF8002040F82E202A690EF11B
:10446000010E72453C4603F1040307F10407E4D84A
:1044700004F1050A04F1060B04F10709B8460834F3
:1044800016F80B2016F80A0016F8083016F809700E
:10449000E969120442EA0022134343EA07678F42A4
:1044A0004ED8EF617FB30027BC4605F1200E0023F4
:1044B0001946301910F8012B9A400833202B41EA95
:1044C0000201F7D104F104084144884509D2E31CF4
:1044D00033444246013213F8010F03F8010C8A42BB
:1044E000F8D3721808F1FF3802F801CC06EB080384
:1044F0002B626A6ADEF8003042F82730EB69013738
:10450000BB420C46D3D8204603B0BDE8F08FA100D3
:10451000C06806F0CFFE6C60E860002C7FF448AF06
:104520004FF0080847460C244FF00B094FF00A0BD8
:104530004FF0090A0722062005234FF0040E65E715
:10454000B900686A06F0B6FE6862AAE79900A86931
:10455000019306F0AFFE019BA86167E770B510F507
:104560001875064615D000F55A64A54211D0603C76
:1045700004F1480005F03CF904F1240005F038F995
:1045800004F1100005F034F9204605F031F9A54298
:10459000EDD116F1080509D006F5F474A54205D051
:1045A000103C204605F024F9A542F9D1304670BDF3
:1045B0002DE9F0478A4EADF5127D05460F4617A846
:1045C000314605F055F91BA8002105F051F920A846
:1045D000002105F04DF90024314629A801268DF867
:1045E00090408DF891408DF892408DF89340ADF851
:1045F0009440ADF89640ADF89840ADF89A40ADF8CB
:104600009C40ADF89E408DF8A0408DF8A1408DF8FB
:10461000A2408DF8A34005F02BF9214603A8ADF880
:10462000B860ADF8B440ADF8B6408DF8BA4005F0CA
:104630001FF9214607A805F01BF9A96807A805F08E
:1046400077F9696803A805F073F9E9681BA805F014
:104650006FF9287CB5F814C0B5F816E02A8B95F8E8
:1046600011A095F8129095F813806B8BE9698DF87D
:10467000900029A8ADF894C0ADF896E0ADF8982068
:10468000ADF89A308DF891A08DF892908DF89380C6
:1046900005F04EF92B8CADF8B43003A90BA8ADF89A
:1046A000B86005F0F9F817A92FA805F0F5F81BA9CF
:1046B00033A805F0F1F89DF87C308DF8DC3020A9A6
:1046C00038A805F0E9F89DF890209DF891309DF804
:1046D00092109DF89300BDF894E0BDF896608DF8B7
:1046E000F0208DF8F130BDF89820BDF89A308DF8A3
:1046F000F2108DF8F300BDF89C10BDF89E00ADF8E7
:10470000F4E0ADF8F6609DF8A0E09DF8A160ADF88A
:10471000F820ADF8FA309DF8A2209DF8A330ADF84E
:10472000FC10ADF8FE0029A941A88DF800E10FADFD
:104730008DF801618DF802218DF8033105F0ACF898
:10474000BDF8B410BDF8B660BDF8B8209DF8BA3019
:10475000ADF81411284607A9ADF81661ADF8182177
:104760008DF81A3147AE05F097F82FAB0BAA13A8B6
:1047700000951C49FEF7FCFB234631464FF4967228
:1047800013A805F067F913A805F032F8284605F0DC
:104790002FF841A805F02CF838A805F029F833A81F
:1047A00005F026F82FA805F023F80BA805F020F84F
:1047B0007E6007A805F01CF803A805F019F829A8E1
:1047C00005F016F820A805F013F81BA805F010F85E
:1047D00017A805F00DF80DF5127DBDE8F08700BFB4
:1047E00070C4000020BEFF1F2DE9F041944BDFF89C
:1047F00064821B68934EB2B004460193019BC6F8D5
:10480000B03D0127414602A886F8AC7D05F030F89E
:1048100006A8002105F02CF80BA8002105F028F8C7
:104820000025414614A88DF83C508DF83D508DF878
:104830003E508DF83F50ADF84050ADF84250ADF8C5
:104840004450ADF84650ADF84850ADF84A508DF898
:104850004C508DF84D508DF84E508DF84F5005F05E
:1048600007F86168ADF8647002A8ADF86050ADF863
:1048700062508DF8665005F05BF8A168724D06A88D
:1048800005F056F8237B21698DF828300BA805F038
:104890004FF8227D637DA17DE07DB4F818E0678B41
:1048A0008DF83C208DF83D30A28BE38B8DF83E10C7
:1048B0008DF83F00218C608CADF840E0ADF842707F
:1048C00094F824E094F82570ADF84420ADF8463013
:1048D00094F8262094F82730ADF84810ADF84A0037
:1048E000A16A8DF84CE014A88DF84D708DF84E201B
:1048F0008DF84F3005F01CF8A18D228E94F83330DE
:10490000E78DADF86010284602A9ADF864208DF857
:104910006630ADF8627004F0EDFE09214B4803F0FB
:10492000FDFA4B4A1368013319462846136004F018
:1049300057FF284604F004FF9DF86610284604F04F
:104940004FFF284604F0FCFE02A91AA804F0A4FFB9
:1049500006A91EA804F0A0FF9DF828308DF8883025
:104960000BA923A804F098FF9DF83C209DF83D304A
:104970008DF89C208DF89D309DF83E209DF83F30AD
:104980008DF89E208DF89F30BDF84020BDF8423054
:10499000ADF8A020ADF8A230BDF84420BDF84630F7
:1049A000ADF8A420ADF8A630BDF84820BDF84A30D7
:1049B000ADF8A820ADF8AA309DF84C209DF84D30F8
:1049C0008DF8AC2014A99DF84E208DF8AD302CA8A0
:1049D0009DF84F308DF8AE208DF8AF3004F05CFFBD
:1049E000BDF86030BDF86420BDF86240ADF8C0305D
:1049F0001AA99DF86630ADF8C42030468DF8C6304F
:104A0000ADF8C240FDF70CFA2CA804F0F1FE23A883
:104A100004F0EEFE1EA804F0EBFE1AA804F0E8FE77
:104A200014A804F0E5FE0BA804F0E2FE06A804F0CA
:104A3000DFFE02A804F0DCFE32B0BDE8F08100BF6A
:104A400008CCFF1F20BEFF1F48A5FF1F2CC400007D
:104A500060B6FF1F70C400002DE9F043804600F1EE
:104A60001005036B774E85B029460C309847D8F86F
:104A70002840D8F8249023681B68B34275D1B9F157
:104A8000630F03DD94F8F834002B6BD098F81430E2
:104A900084F82332D8F8180006F0F2FF04F223223B
:104AA0000546002325FA03F10833202B02F8011FE5
:104AB000F8D104F50A77D8F818102A46384602F0DB
:104AC0003DFD05F1050E5FFA8EF3CEF307215A186E
:104AD000D24384F81E3284F82022FF23FE2284F879
:104AE0001F12BEF1FF3F5FFA89F149F3072984F8ED
:104AF0001C3284F81D2284F8211284F822920DDBE6
:104B000005F22720204404F22123002201E013F8BB
:104B1000011F83420A44FAD1D343DBB204EB0E02F5
:104B20000EF1080EBEF5007F82F8233224DCBEF1C0
:104B3000000F04F5077615DD0C352E44424F04F2C4
:104B40001B2503E004F054FBAE420BD0626815F85D
:104B5000011F13681B68BB420846F3D010469847F4
:104B6000AE42F3D105B0BDE8F0832A46494620465F
:104B7000984705B0BDE8F08303218DF8081022683E
:104B80003248334B019003931568B54254D100224B
:104B9000382084F8231284F8240203F1300184F8C9
:104BA000252284F8262284F827221D6858689A68EE
:104BB000DE68FE6010338B423D607860BA6007F1BA
:104BC0001007F2D119685B687B6039603D200022D4
:104BD000C223FF26FE25072184F81E0284F8203216
:104BE00084F81C6284F81D5284F81F2284F8222263
:104BF00084F8211204F2212304F25F2001E013F86B
:104C0000011F98420A44FAD1D2430F4F84F8602220
:104C100004F21B2504F5187603E004F0E9FAB54226
:104C2000A0D0626815F8011F13681B68BB420846D4
:104C3000F3D010469847F2E7204601AA0721A8477B
:104C400090E700BF255400008943000070C00000B9
:104C500038C400002DE9F0410023074684B00C3031
:104C60004C1E1D4614F8012F9A400833202B45EAAC
:104C70000205F7D12E1D042E01F1030E08D9EC1CFC
:104C800073460C4413F8012F03F8012CA342F9D109
:104C90000D440023EB70C7F810E08B5D3B7507F106
:104CA00018067B6B704D31469847FC6AD7F8288010
:104CB00023681B68AB4268D1B8F1630F03DD94F839
:104CC000F834002B5ED0F86906F0DAFE04F22222F6
:104CD0000646002326FA03F10833202B02F8011FB1
:104CE000F8D1F9693246371D04F2272002F026FC7C
:104CF000FBB2C7F307215A18D24384F82022FE22C0
:104D000084F81E3284F81F12FF235FFA88F184F8BA
:104D10001D2248F307287A1C84F81C3284F82112DB
:104D200084F822820DDB06F22620204404F221239F
:104D3000002201E013F8011F98420A44FAD1D3433C
:104D4000DBB2E2190837B7F5007F82F8233223DCA3
:104D5000002F04F5077315DD0B36444F1E4404F293
:104D60001B2503E004F044FAB5420BD0626815F845
:104D7000011F13681B68BB420846F3D010469847D2
:104D8000B542F3D104B0BDE8F08132464146204639
:104D9000984704B0BDE8F08103218DF8081022681F
:104DA0003348344B019003931668AE4256D100222B
:104DB000382084F8231203F1300584F8240284F8A3
:104DC000252284F8262284F8272204F50A711E6819
:104DD00058689A68DF68CF601033AB420E60486055
:104DE0008A6001F11001F2D11F685B684B600F60AF
:104DF0003D200022C223FF26FE25072184F81E0243
:104E000084F8203284F81C6284F81D5284F81F2232
:104E100084F8222284F8211204F2212304F25F2074
:104E200001E013F8011F98420A44FAD1D2430F4F10
:104E300084F8602204F21B2504F5187603E004F0E0
:104E4000D7F9B5429ED0626815F8011F13681B6838
:104E5000BB420846F3D010469847F2E7204601AA25
:104E60000721B0478EE700BF2554000089430000AA
:104E700070C0000038C400002DE9F0410022074650
:104E800084B00C304D1E134615F8014F9440083283
:104E9000202A43EA0403F7D103F1040EBEF1040F04
:104EA00040F2158101F1030CDE1C62468D1912F8E7
:104EB000014F02F8014CAA42F9D100228A5514464A
:104EC0000E44C7F810C016F8015FA5400834202C26
:104ED00042EA0502F7D10EF104063244964209D2A5
:104EE00007330B443446013413F8015F03F8015CC7
:104EF0009442F8D3731E8E1800250B4406F8015C0B
:104F00002C467B612B4616F8015BA5400834202C0B
:104F100043EA0503F7D1161D33449E4209D20332FA
:104F20000A443446013412F8015F02F8015C9C42E5
:104F3000F8D3CC18013E0E44002204F8012CBE61C7
:104F4000CD5C3D7765787D77A578BD77E578FD7791
:104F500025793D84667945EA06253D84A5797D84D9
:104F6000E67945EA06257D84257ABD84667A45EA98
:104F70000625BD84A47AFC8403F10B0503F10C0E15
:104F80004E5D44EA0624FC840D44164615F8014F94
:104F900094400832202A46EA0406F7D10EF10405AF
:104FA0002E44B54209D20F33741E0B440C4413F83F
:104FB000012F03F8012CA342F9D18A19013D0D44B8
:104FC000002302F8013CBD628B5DBB855278FC6C0E
:104FD000744D43EA022307F13006BB853146A047F2
:104FE0007C6CD7F8408023681B68AB4268D1B8F16D
:104FF000630F03DD94F8F834002B5ED0786B06F075
:105000003FFD04F222220646002326FA03F108336C
:10501000202B02F8011FF8D1796B3246371D04F2BC
:10502000272002F08BFAFBB2C7F307215A18D243AC
:1050300084F82022FE2284F81E3284F81F12FF23F7
:105040005FFA88F184F81D2248F307287A1C84F857
:105050001C3284F8211284F822820DDB06F226200D
:10506000204404F22123002201E013F8011F98429A
:105070000A44FAD1D343DBB2E2190837B7F5007F0F
:1050800082F8233227DC002F04F5077315DD0B3679
:10509000454F1E4404F21B2503E004F0A9F8B54275
:1050A0000BD0626815F8011F13681B68BB420846E5
:1050B000F3D010469847B542F3D104B0BDE8F08173
:1050C000324641462046984704B0BDE8F081DE1CD8
:1050D00001F1030CF1E603218DF808102268334832
:1050E000334B019003931668AE4256D1002238200C
:1050F00084F8231203F1300584F8240284F8252271
:1051000084F8262284F8272204F50A711E6858685C
:105110009A68DF68CF601033AB420E6048608A60E7
:1051200001F11001F2D11F685B684B600F603D20F8
:105130000022C223FF26FE25072184F81E0284F8E0
:10514000203284F81C6284F81D5284F81F2284F8EF
:10515000222284F8211204F2212304F25F2001E0CC
:1051600013F8011F83420A44FAD1D2430E4F84F848
:10517000602204F21B2504F5187603E004F038F8E9
:10518000B5429AD0626815F8011F13681B68BB42CC
:105190000846F3D010469847F2E7204601AA0721B7
:1051A000B0478AE7255400008943000070C0000022
:1051B00038C4000000232DE9F0411A4604464E1E73
:1051C0000C3016F8015F9D400833202B42EA05029F
:1051D000F7D102F1040EBEF1040F40F21B8101F180
:1051E000030CD71C6346CE1913F8015F03F8015C6A
:1051F000B342F9D10023CB551D460F44C4F810C06B
:1052000017F8016FAE400835202D43EA0603F7D1A9
:105210000EF104073B449F4209D207320A443D463F
:10522000013512F8016F02F8016C9D42F8D37A1E25
:10523000CF180A44002507F8015C6261CA5C227637
:1052400003F1010E2A4617F8016FAE400835202DF4
:1052500042EA0602F7D10EF104073A44974209D216
:105260000433561E0B440E4413F8015F03F8015C2F
:10527000B342F9D18B18013F00250F4403F8015CBC
:10528000E7618E5C84F820605E7884F821609E7807
:1052900084F82260DE7884F823601E79A6845F7922
:1052A00046EA0726A6849E79E684DF7946EA072641
:1052B000E6841E7A26855F7A46EA072626859E7A48
:1052C0006685DF7A46EA072666851E7BA6855F7BB4
:1052D00046EA0726A6859E7BE685DF7B46EA07260B
:1052E000E6851E7C84F830605E7C84F831609B7CAF
:1052F00084F8323002F113062B468D5D84F833506A
:105300000E441F4602F1140E16F8015F9D4008334B
:10531000202B47EA0507F7D10EF104063744BE42B9
:105320000AD202F117037D1E0B440D4413F8012F1E
:1053300003F8012CAB42F9D1CB19013E0E440022F7
:1053400003F8012C6663CA5D22875978E56D42EA4D
:10535000012222879A786287D97842EA01226287FD
:105360001A79A287597942EA0122A2879A7984F8A8
:105370003E20DB7984F83F3004F140063146A847EF
:10538000656D264A2B68216D1B6893423DD16329C8
:1053900002DD95F8F834B3B341F3072094F84420C4
:1053A00085F82322C3B253FA81F31344FF26FE2269
:1053B0000124DB4385F82112002185F81C6285F861
:1053C0001E42174F85F8220285F8243285F81D22E7
:1053D00085F8202285F81F1205F21B2405F50976B1
:1053E00003E003F005FFA6420BD06A6814F8011F22
:1053F00013681B68BB420846F3D010469847A64284
:10540000F3D1BDE8F081BDE8F08132462846BDE821
:10541000F0411847D71C01F1030CEBE625540000BE
:10542000894300002DE9F041632984B003DD90F841
:10543000F874002F53D0136805460F4610461B68BA
:1054400005F223219847C2B2C0F30721561885F808
:105450001E2247F30722F643FF234FF0FE0EFCB255
:1054600085F82222421C85F8206285F81F1285F8F3
:105470001C3285F81DE285F821420DDB00F2222165
:10548000294405F22123002201E013F8014F99423B
:105490002244FAD1D343DBB22A1800F10807B7F54A
:1054A000007F82F823321EDC002F05F5077616DD1B
:1054B0000730DFF81081064405F21B2403E003F0F7
:1054C00097FEB4420BD06A6814F8011F13681B687A
:1054D00043450846F3D010469847B442F3D13846C6
:1054E00004B0BDE8F081344A0192344C2B68039437
:1054F00003228DF808201B6831498B4255D10023C7
:10550000382185F8232204F1300E85F8241285F81D
:10551000253285F8263285F8273205F50A762746A2
:105520000FCF774530607160B260F3603C4606F1A2
:105530001006F4D103CC00227160C2234FF0FF0E9D
:10554000FE273D240721306085F8203285F81CE2D3
:1055500085F81D7285F81E4285F81F2285F82222E3
:1055600085F8211205F2212305F25F2001E013F8EE
:10557000011F98420A44FAD1D243DFF8488085F8E7
:10558000602205F21B2405F5187603E003F030FED7
:10559000B4420ED06A6814F8011F13681B684345B3
:1055A0000846F3D010469847F2E7284601AA07219B
:1055B00098474FF0FF3093E770C0000038C40000F8
:1055C000255400008943000000B5094A094B1168C1
:1055D00083B001910198126800920749009A08600F
:1055E000C3F8B02D1846FCF7D5FE03B05DF804FBF8
:1055F00008CCFF1F20BEFF1F64B6FF1F10B50B4B6A
:105600000B481A6882B00192019C1B680093094BF9
:10561000009AC3F8B02D04600C46FFF7D5FF064B87
:10562000A3600122227102B010BD00BF08CCFF1F91
:1056300064B6FF1F20BEFF1F74C40000964A0023FB
:1056400002F5836170B50846C2F8E434C2F8E83464
:10565000C2F8F034C2F8EC3402E00133192B0DD05B
:1056600050F8044F002CF8D18C4802EB830400F171
:1056700048057D3342650365C4F81C5488480023FF
:10568000044602E00133192B0AD054F8045F002DC0
:10569000F8D103F59075814C42F82540643363607E
:1056A000804C002302E00133192B0DD054F8045F25
:1056B000002DF8D17C4C02EB830504F11C067D33F0
:1056C000A2626362C5F81C64754C002302E00133DA
:1056D000192B0AD054F8045F002DF8D103F590750A
:1056E000714C42F82540643363606E4C002302E045
:1056F0000133192B0DD054F8045F002DF8D16B4CF9
:1057000002EB830504F11C067D33A2626362C5F8D7
:105710001C64634C002302E00133192B0AD054F8B7
:10572000045F002DF8D103F59075604C42F82540D8
:10573000643363605B4C002302E00133192B0DD00E
:1057400054F8045F002DF8D1594C02EB830504F1A5
:105750001C067D33A2626362C5F81C64504C0023B2
:1057600002E00133192B0AD054F8045F002DF8D160
:1057700003F590754E4C42F8254064336360494C04
:10578000002302E00133192B0DD054F8045F002DE3
:10579000F8D1484C02EB830504F11C067D33A2626C
:1057A0006362C5F81C643E4C002302E00133192BF0
:1057B0000AD054F8045F002DF8D103F590753D4CE4
:1057C00042F8254064336360364C002302E0013325
:1057D000192B0DD054F8045F002DF8D1364C02EB94
:1057E000830504F138067D3362642364C5F81C64C4
:1057F0002B4C002302E00133192B0AD054F8045F2C
:10580000002DF8D103F590752B4C42F825406433F8
:105810006360002302E00133192B0DD051F8044FCF
:10582000002CF8D1254902EB830401F120057D33DA
:10583000CA628B62C4F81C54002302E00133192BA6
:105840000AD050F8041F0029F8D103F590701B49C5
:1058500042F8201064334B60194C204601F030FBB5
:105860002288A06802EB4202002105F0D1FC20460C
:1058700001F0BCFB01210D2002F044F801211720AA
:1058800002F040F80D20002102F036F84820BDE873
:10589000704002F021B900BF68B6FF1F68AEFF1F5D
:1058A000E4BAFF1F80BAFF1FB8BDFF1F9CBBFF1FDC
:1058B000ECBDFF1FD4CBFF1FD0AEFF1F28B6FF1FCC
:1058C00024A5FF1F2DE9F04F8DB0D04AD04B069292
:1058D0000022044600F5836600F27C45ADF81C20EA
:1058E0000B92089309930A9356F8043F002B00F09B
:1058F000D28058681F6801689A6808978B68ADF86D
:105900001C2098473368099058680368DB689847FB
:10591000236831680A904FF400721B68D1F8108038
:105920000B92BC4A9342824640F0B581B8F1630FB6
:1059300004DD94F8F834002B00F0AD80BDF81C3085
:10594000DDF8209084F823321B0A84F8243248467C
:1059500006F096F807463B0E3A0C000A494684F8D2
:10596000283284F8257284F8260284F8272204F26B
:1059700029203A4601F0E2FDDDF824B0584606F051
:105980007FF804F22329791D024606374944002393
:1059900022FA03F00833202B01F8010FF8D1043765
:1059A000594609EB0700174401F0C8FD504606F0C0
:1059B00067F809EB0702834600232BFA03F108334B
:1059C000202B02F8011BF8D10437514609EB0700E0
:1059D0005A4601F0B3FD0BEB070E0EF104075FFA18
:1059E00087FAC7F3072C09EB0E010AEB0C00002223
:1059F000C0434FF0020B09F80E20FF238A70CA70D3
:105A000081F801B04FF0FE095FFA88F184F82002B6
:105A100048F30728781C84F81EA284F81FC284F873
:105A20001C3284F81D9284F8211284F82282C0F27C
:105A30000A820EF22620204404F2212301E013F80A
:105A4000011F98420A44FAD1D243D2B2E11907F1B8
:105A50000803B3F5007F81F8232200F32481002B93
:105A600004F5077717DD0EF10B0EDFF8AC917744E4
:105A700004F21B2803E003F0BBFB47450BD0626830
:105A800018F8011F13681B684B450846F3D01046F1
:105A900098474745F3D1B5427FF426AFDFF87491BC
:105AA00004F59C6855F8040F002800F0E380816835
:105AB000036842680891ADF81C209B6898472B68E2
:105AC00009901A681846D36898472B6821680A908D
:105AD0001A680E6852684FF4007118460B9190478F
